:100000000C943E000C9448000C9448000C9448005A
:100010000C9448000C9448000C9448000C94480040
:100020000C9448000C9448000C9448000C94480030
:100030000C9448000C9448000C9448000C94480020
:100040000C9448000C9448000C9448000C94480010
:100050000C9448000C9448000C9448000C94480000
:100060000C9448000C9448000C9448000C944800F0
:100070000C9448000C9448000C94480011241FBEB6
:10008000CFEFD8E0DEBFCDBF0E945F000C946A00C6
:100090000C940000E0E8F0E0808183688083E1E870
:1000A000F0E0808189608083109285001092840046
:1000B00082E08093890086E6809388000895389ACC
:1000C000559A0E944A0081E04D9B02C088B9FCCF3E
:0800D00018B8FACFF894FFCF35
:00000001FF
