:100000000C943E000C9448000C9448000C9448005A
:100010000C9448000C9448000C9448000C94480040
:100020000C9448000C9448000C9448000C94480030
:100030000C9448000C944A000C9448000C9448001E
:100040000C9448000C9448000C9448000C94480010
:100050000C9448000C9448000C9448000C94480000
:100060000C9448000C9448000C9448000C944800F0
:100070000C9448000C9448000C94480011241FBEB6
:10008000CFEFD8E0DEBFCDBF0E9473000C94BA0062
:100090000C9400001F920F920FB60F921124189A21
:1000A0000F900FBE0F901F901895109280009CE04B
:1000B00090938100EFE6F0E090819260908320E0E1
:1000C00030E0382F330F40E050E060E472E48FE01E
:1000D00090E00E94790021503109309389002093EB
:1000E000880078940895209A8EE190E00E9455004F
:1000F000FFCF052E97FB1EF400940E94900057FD41
:1001000007D00E94980007FC03D04EF40C94900096
:1001100050954095309521953F4F4F4F5F4F089533
:1001200090958095709561957F4F8F4F9F4F089563
:10013000A1E21A2EAA1BBB1BFD010DC0AA1FBB1FEB
:10014000EE1FFF1FA217B307E407F50720F0A21B5D
:10015000B30BE40BF50B661F771F881F991F1A94CA
:1001600069F760957095809590959B01AC01BD01F4
:08017000CF010895F894FFCFC0
:00000001FF
