:100000000C943E000C9450000C9450000C94500042
:100010000C9450000C9450000C9450000C94500020
:100020000C9450000C9450000C9450000C94500010
:100030000C9450000C9450000C9450000C94500000
:100040000C9450000C9450000C9450000C945000F0
:100050000C9450000C9450000C9450000C945000E0
:100060000C9450000C9450000C9450000C945000D0
:100070000C9450000C9450000C94500011241FBE9E
:10008000CFEFD8E0DEBFCDBF21E0A0E0B1E001C0FE
:100090001D92A230B207E1F70E9452000C94830037
:1000A0000C94000014B88FEF87B985B910928000C6
:1000B0008091810087608093810021E0809185009C
:1000C00090E0982F88279093010180930001309150
:1000D0008400830F911D90930101809300010A9782
:1000E00011F428B901C018B880918400909185005E
:1000F0000B9720F3109201011092000110928500DD
:0A01000010928400DBCFF894FFCFCB
:00000001FF
