:100000000C943E000C9448000C9448000C9448005A
:100010000C9448000C9448000C9448000C94480040
:100020000C9448000C9448000C9448000C94480030
:100030000C9448000C9448000C9448000C94480020
:100040000C9448000C9448000C9448000C94480010
:100050000C9448000C9448000C9448000C94480000
:100060000C9448000C9448000C9448000C944800F0
:100070000C9448000C9448000C94480011241FBEB6
:10008000CFEFD8E0DEBFCDBF0E945E000C946900C8
:100090000C9400001092850010928400E0E8F0E0DB
:1000A000808181688083E1E8F0E0808183608083E3
:1000B000109289008FE7809388000895389A559AA6
:1000C0000E944A0081E04D9B02C088B9FCCF18B85D
:0600D000FACFF894FFCF07
:00000001FF
