:100000000C943E000C9448000C9448000C9448005A
:100010000C9448000C9448000C9448000C94480040
:100020000C9448000C9448000C9448000C94480030
:100030000C9448000C9448000C9448000C94480020
:100040000C9448000C9448000C9448000C94480010
:100050000C9448000C9448000C9448000C94480000
:100060000C9448000C9448000C9448000C944800F0
:100070000C9448000C9448000C94480011241FBEB6
:10008000CFEFD8E0DEBFCDBF0E9454000C945E00DD
:100090000C94000016BC14BC85E085BDA89BFECF67
:1000A00015BC81E085BB08958FEF87B9C1E0C8B961
:1000B0000E944A0018B80E944A00F9CFF894FFCF76
:00000001FF
