:100000000C943E000C9448000C9448000C9448005A
:100010000C9448000C9448000C9448000C94480040
:100020000C9448000C9448000C9448000C94480030
:100030000C9448000C944A000C9448000C9448001E
:100040000C9448000C9448000C9448000C94480010
:100050000C9448000C9448000C9448000C94480000
:100060000C9448000C9448000C9448000C944800F0
:100070000C9448000C9448000C94480011241FBEB6
:10008000CFEFD8E0DEBFCDBF0E9463000C946E00BE
:100090000C9400001F920F920FB60F921124189A21
:1000A0000F900FBE0F901F90189510928000E1E8FE
:1000B000F0E080818C608083EFE6F0E080818260F8
:1000C0008083789408958FEF84B90E94550080E46E
:1000D00090E09093890080938800FFCFF894FFCF41
:00000001FF
