:100000000C943E000C9450000C9450000C94500042
:100010000C9450000C9450000C9450000C94500020
:100020000C9450000C9450000C9450000C94500010
:100030000C9450000C9450000C9450000C94500000
:100040000C9450000C9450000C9450000C945000F0
:100050000C9450000C9450000C9450000C945000E0
:100060000C9450000C9450000C9450000C945000D0
:100070000C9450000C9450000C94500011241FBE9E
:10008000CFEFD8E0DEBFCDBF21E0A0E0B1E001C0FE
:100090001D92A130B207E1F70E9452000C946B0050
:1000A0000C94000014B88FEF87B985B914BC85B5DE
:1000B000866085BD16BC91E086B5809300018A30CC
:1000C00011F498B901C018B886B58B30A8F3109216
:0A00D000000116BCF1CFF894FFCF39
:00000001FF
