:100000000C943E000C9448000C9448000C9448005A
:100010000C9448000C9448000C9448000C94480040
:100020000C9448000C9448000C9448000C94480030
:100030000C9448000C9448000C9448000C94480020
:100040000C9448000C9448000C9448000C94480010
:100050000C9448000C9448000C9448000C94480000
:100060000C9448000C9448000C9448000C944800F0
:100070000C9448000C9448000C94480011241FBEB6
:10008000CFEFD8E0DEBFCDBF0E9460000C946A00C5
:100090000C94000010928500109284008EE08093F2
:1000A000890087EA80938800109280008AE080931C
:1000B0008100B19BFECF1092810082E086BB089543
:1000C0008FEF87B9C1E0C8B90E944A0018B80E94F2
:0800D0004A00F9CFF894FFCFBC
:00000001FF
