:100000000C943E000C9448000C9448000C9448005A
:100010000C9448000C9448000C9448000C94480040
:100020000C9448000C9448000C9448000C94480030
:100030000C9448000C9448000C9448000C94480020
:100040000C9448000C9448000C9448000C94480010
:100050000C9448000C9448000C9448000C94480000
:100060000C9448000C9448000C9448000C944800F0
:100070000C9448000C9448000C94480011241FBEB6
:10008000CFEFD8E0DEBFCDBF0E945C000C946600CD
:100090000C94000087EF8093850088ED80938400A6
:1000A0001092800082E080938100B09BFECF10927E
:1000B000810081E086BB08958FEF87B9C1E0C8B9A0
:1000C0000E944A0018B80E944A00F9CFF894FFCF66
:00000001FF
