:100000000C943E000C9448000C9448000C9448005A
:100010000C9448000C9448000C9448000C94480040
:100020000C9448000C9448000C9448000C94480030
:100030000C9448000C9448000C9448000C944A001E
:100040000C9448000C9448000C9448000C94480010
:100050000C9448000C9448000C9448000C94480000
:100060000C9448000C9448000C9448000C944800F0
:100070000C9448000C9448000C94480011241FBEB6
:10008000CFEFD8E0DEBFCDBF0E9471000C947700A7
:100090000C9400001F920F920FB60F92112483E070
:1000A00085B92FE33DE093E0215030409040E1F7E7
:1000B00000C0000015B82FE33DE093E02150304030
:1000C0009040E1F700C00000EBCF1092800083E089
:1000D00080938100EFE6F0E08081816080837894F6
:1000E00008958FEF84B90E94650015B8FECFF8948B
:0200F000FFCF40
:00000001FF
